{
  "_format": "hh-sol-artifact-1",
  "contractName": "D_Ad",
  "sourceName": "contracts/D_Ad.sol",
  "abi": [
    {
      "inputs": [],
      "stateMutability": "nonpayable",
      "type": "constructor"
    },
    {
      "anonymous": false,
      "inputs": [
        {
          "indexed": true,
          "internalType": "address",
          "name": "owner",
          "type": "address"
        },
        {
          "indexed": true,
          "internalType": "address",
          "name": "spender",
          "type": "address"
        },
        {
          "indexed": false,
          "internalType": "uint256",
          "name": "value",
          "type": "uint256"
        }
      ],
      "name": "Approval",
      "type": "event"
    },
    {
      "anonymous": false,
      "inputs": [
        {
          "indexed": true,
          "internalType": "address",
          "name": "from",
          "type": "address"
        },
        {
          "indexed": true,
          "internalType": "address",
          "name": "to",
          "type": "address"
        },
        {
          "indexed": false,
          "internalType": "uint256",
          "name": "value",
          "type": "uint256"
        }
      ],
      "name": "Transfer",
      "type": "event"
    },
    {
      "inputs": [
        {
          "internalType": "address",
          "name": "owner",
          "type": "address"
        },
        {
          "internalType": "address",
          "name": "spender",
          "type": "address"
        }
      ],
      "name": "allowance",
      "outputs": [
        {
          "internalType": "uint256",
          "name": "",
          "type": "uint256"
        }
      ],
      "stateMutability": "view",
      "type": "function"
    },
    {
      "inputs": [
        {
          "internalType": "address",
          "name": "spender",
          "type": "address"
        },
        {
          "internalType": "uint256",
          "name": "amount",
          "type": "uint256"
        }
      ],
      "name": "approve",
      "outputs": [
        {
          "internalType": "bool",
          "name": "",
          "type": "bool"
        }
      ],
      "stateMutability": "nonpayable",
      "type": "function"
    },
    {
      "inputs": [
        {
          "internalType": "address",
          "name": "account",
          "type": "address"
        }
      ],
      "name": "balanceOf",
      "outputs": [
        {
          "internalType": "uint256",
          "name": "",
          "type": "uint256"
        }
      ],
      "stateMutability": "view",
      "type": "function"
    },
    {
      "inputs": [
        {
          "internalType": "address",
          "name": "",
          "type": "address"
        }
      ],
      "name": "balances",
      "outputs": [
        {
          "internalType": "uint256",
          "name": "",
          "type": "uint256"
        }
      ],
      "stateMutability": "view",
      "type": "function"
    },
    {
      "inputs": [],
      "name": "decimals",
      "outputs": [
        {
          "internalType": "uint8",
          "name": "",
          "type": "uint8"
        }
      ],
      "stateMutability": "view",
      "type": "function"
    },
    {
      "inputs": [
        {
          "internalType": "address",
          "name": "spender",
          "type": "address"
        },
        {
          "internalType": "uint256",
          "name": "subtractedValue",
          "type": "uint256"
        }
      ],
      "name": "decreaseAllowance",
      "outputs": [
        {
          "internalType": "bool",
          "name": "",
          "type": "bool"
        }
      ],
      "stateMutability": "nonpayable",
      "type": "function"
    },
    {
      "inputs": [
        {
          "internalType": "address",
          "name": "_addr",
          "type": "address"
        }
      ],
      "name": "getBalance",
      "outputs": [
        {
          "internalType": "uint256",
          "name": "",
          "type": "uint256"
        }
      ],
      "stateMutability": "view",
      "type": "function"
    },
    {
      "inputs": [
        {
          "internalType": "address",
          "name": "spender",
          "type": "address"
        },
        {
          "internalType": "uint256",
          "name": "addedValue",
          "type": "uint256"
        }
      ],
      "name": "increaseAllowance",
      "outputs": [
        {
          "internalType": "bool",
          "name": "",
          "type": "bool"
        }
      ],
      "stateMutability": "nonpayable",
      "type": "function"
    },
    {
      "inputs": [
        {
          "internalType": "address",
          "name": "account",
          "type": "address"
        }
      ],
      "name": "mintReward",
      "outputs": [],
      "stateMutability": "nonpayable",
      "type": "function"
    },
    {
      "inputs": [],
      "name": "name",
      "outputs": [
        {
          "internalType": "string",
          "name": "",
          "type": "string"
        }
      ],
      "stateMutability": "view",
      "type": "function"
    },
    {
      "inputs": [],
      "name": "owner",
      "outputs": [
        {
          "internalType": "address payable",
          "name": "",
          "type": "address"
        }
      ],
      "stateMutability": "view",
      "type": "function"
    },
    {
      "inputs": [
        {
          "internalType": "address",
          "name": "recipient",
          "type": "address"
        },
        {
          "internalType": "uint256",
          "name": "amount",
          "type": "uint256"
        }
      ],
      "name": "safeTransfer",
      "outputs": [],
      "stateMutability": "nonpayable",
      "type": "function"
    },
    {
      "inputs": [
        {
          "internalType": "address",
          "name": "recipient",
          "type": "address"
        },
        {
          "internalType": "uint256",
          "name": "amount",
          "type": "uint256"
        },
        {
          "internalType": "bytes",
          "name": "_data",
          "type": "bytes"
        }
      ],
      "name": "safeTransfer",
      "outputs": [],
      "stateMutability": "nonpayable",
      "type": "function"
    },
    {
      "inputs": [
        {
          "internalType": "address",
          "name": "sender",
          "type": "address"
        },
        {
          "internalType": "address",
          "name": "recipient",
          "type": "address"
        },
        {
          "internalType": "uint256",
          "name": "amount",
          "type": "uint256"
        }
      ],
      "name": "safeTransferFrom",
      "outputs": [],
      "stateMutability": "nonpayable",
      "type": "function"
    },
    {
      "inputs": [
        {
          "internalType": "address",
          "name": "sender",
          "type": "address"
        },
        {
          "internalType": "address",
          "name": "recipient",
          "type": "address"
        },
        {
          "internalType": "uint256",
          "name": "amount",
          "type": "uint256"
        },
        {
          "internalType": "bytes",
          "name": "_data",
          "type": "bytes"
        }
      ],
      "name": "safeTransferFrom",
      "outputs": [],
      "stateMutability": "nonpayable",
      "type": "function"
    },
    {
      "inputs": [
        {
          "internalType": "bytes4",
          "name": "interfaceId",
          "type": "bytes4"
        }
      ],
      "name": "supportsInterface",
      "outputs": [
        {
          "internalType": "bool",
          "name": "",
          "type": "bool"
        }
      ],
      "stateMutability": "view",
      "type": "function"
    },
    {
      "inputs": [],
      "name": "symbol",
      "outputs": [
        {
          "internalType": "string",
          "name": "",
          "type": "string"
        }
      ],
      "stateMutability": "view",
      "type": "function"
    },
    {
      "inputs": [],
      "name": "totalSupply",
      "outputs": [
        {
          "internalType": "uint256",
          "name": "",
          "type": "uint256"
        }
      ],
      "stateMutability": "view",
      "type": "function"
    },
    {
      "inputs": [
        {
          "internalType": "address",
          "name": "to",
          "type": "address"
        },
        {
          "internalType": "uint256",
          "name": "amount",
          "type": "uint256"
        }
      ],
      "name": "transfer",
      "outputs": [
        {
          "internalType": "bool",
          "name": "",
          "type": "bool"
        }
      ],
      "stateMutability": "nonpayable",
      "type": "function"
    },
    {
      "inputs": [
        {
          "internalType": "address",
          "name": "from",
          "type": "address"
        },
        {
          "internalType": "address",
          "name": "to",
          "type": "address"
        },
        {
          "internalType": "uint256",
          "name": "amount",
          "type": "uint256"
        }
      ],
      "name": "transferFrom",
      "outputs": [
        {
          "internalType": "bool",
          "name": "",
          "type": "bool"
        }
      ],
      "stateMutability": "nonpayable",
      "type": "function"
    },
    {
      "inputs": [
        {
          "internalType": "address",
          "name": "account",
          "type": "address"
        }
      ],
      "name": "transferReward",
      "outputs": [],
      "stateMutability": "nonpayable",
      "type": "function"
    }
  ],
  "bytecode": "0x60806040523480156200001157600080fd5b506040518060400160405280600881526020017f3078636174626f780000000000000000000000000000000000000000000000008152506040518060400160405280600381526020017f434154000000000000000000000000000000000000000000000000000000000081525081600390805190602001906200009692919062000365565b508060049080519060200190620000af92919062000365565b50505033600660006101000a81548173ffffffffffffffffffffffffffffffffffffffff021916908373ffffffffffffffffffffffffffffffffffffffff16021790555062000155600660009054906101000a900473ffffffffffffffffffffffffffffffffffffffff166200012a620001d960201b60201c565b600a620001389190620005af565b63042c1d8062000149919062000600565b620001e260201b60201c565b63042c1d8060056000600660009054906101000a900473ffffffffffffffffffffffffffffffffffffffff1673ffffffffffffffffffffffffffffffffffffffff1673ffffffffffffffffffffffffffffffffffffffff1681526020019081526020016000206000828254620001cc919062000661565b92505081905550620007d4565b60006012905090565b600073ffffffffffffffffffffffffffffffffffffffff168273ffffffffffffffffffffffffffffffffffffffff16141562000255576040517f08c379a00000000000000000000000000000000000000000000000000000000081526004016200024c906200071f565b60405180910390fd5b62000269600083836200035b60201b60201c565b80600260008282546200027d919062000661565b92505081905550806000808473ffffffffffffffffffffffffffffffffffffffff1673ffffffffffffffffffffffffffffffffffffffff1681526020019081526020016000206000828254620002d4919062000661565b925050819055508173ffffffffffffffffffffffffffffffffffffffff16600073ffffffffffffffffffffffffffffffffffffffff167fddf252ad1be2c89b69c2b068fc378daa952ba7f163c4a11628f55a4df523b3ef836040516200033b919062000752565b60405180910390a362000357600083836200036060201b60201c565b5050565b505050565b505050565b82805462000373906200079e565b90600052602060002090601f016020900481019282620003975760008555620003e3565b82601f10620003b257805160ff1916838001178555620003e3565b82800160010185558215620003e3579182015b82811115620003e2578251825591602001919060010190620003c5565b5b509050620003f29190620003f6565b5090565b5b8082111562000411576000816000905550600101620003f7565b5090565b7f4e487b7100000000000000000000000000000000000000000000000000000000600052601160045260246000fd5b60008160011c9050919050565b6000808291508390505b6001851115620004a3578086048111156200047b576200047a62000415565b5b60018516156200048b5780820291505b80810290506200049b8562000444565b94506200045b565b94509492505050565b600082620004be576001905062000591565b81620004ce576000905062000591565b8160018114620004e75760028114620004f25762000528565b600191505062000591565b60ff84111562000507576200050662000415565b5b8360020a91508482111562000521576200052062000415565b5b5062000591565b5060208310610133831016604e8410600b8410161715620005625782820a9050838111156200055c576200055b62000415565b5b62000591565b62000571848484600162000451565b925090508184048111156200058b576200058a62000415565b5b81810290505b9392505050565b6000819050919050565b600060ff82169050919050565b6000620005bc8262000598565b9150620005c983620005a2565b9250620005f87fffffffffffffffffffffffffffffffffffffffffffffffffffffffffffffffff8484620004ac565b905092915050565b60006200060d8262000598565b91506200061a8362000598565b9250817fffffffffffffffffffffffffffffffffffffffffffffffffffffffffffffffff048311821515161562000656576200065562000415565b5b828202905092915050565b60006200066e8262000598565b91506200067b8362000598565b9250827fffffffffffffffffffffffffffffffffffffffffffffffffffffffffffffffff03821115620006b357620006b262000415565b5b828201905092915050565b600082825260208201905092915050565b7f4b4950373a206d696e7420746f20746865207a65726f20616464726573730000600082015250565b600062000707601e83620006be565b91506200071482620006cf565b602082019050919050565b600060208201905081810360008301526200073a81620006f8565b9050919050565b6200074c8162000598565b82525050565b600060208201905062000769600083018462000741565b92915050565b7f4e487b7100000000000000000000000000000000000000000000000000000000600052602260045260246000fd5b60006002820490506001821680620007b757607f821691505b60208210811415620007ce57620007cd6200076f565b5b50919050565b6122e080620007e46000396000f3fe608060405234801561001057600080fd5b50600436106101375760003560e01c806342842e0e116100b8578063a457c2d71161007c578063a457c2d714610362578063a9059cbb14610392578063b88d4fde146103c2578063dd62ed3e146103de578063eb7955491461040e578063f8b2cb4f1461042a57610137565b806342842e0e146102be57806370a08231146102da5780638c93256e1461030a5780638da5cb5b1461032657806395d89b411461034457610137565b8063241d79e1116100ff578063241d79e11461020857806327e235e314610224578063313ce567146102545780633950935114610272578063423f6cef146102a257610137565b806301ffc9a71461013c57806306fdde031461016c578063095ea7b31461018a57806318160ddd146101ba57806323b872dd146101d8575b600080fd5b61015660048036038101906101519190611554565b61045a565b604051610163919061159c565b60405180910390f35b61017461053c565b6040516101819190611650565b60405180910390f35b6101a4600480360381019061019f9190611706565b6105ce565b6040516101b1919061159c565b60405180910390f35b6101c26105f1565b6040516101cf9190611755565b60405180910390f35b6101f260048036038101906101ed9190611770565b6105fb565b6040516101ff919061159c565b60405180910390f35b610222600480360381019061021d91906117c3565b61062a565b005b61023e600480360381019061023991906117c3565b61071f565b60405161024b9190611755565b60405180910390f35b61025c610737565b604051610269919061180c565b60405180910390f35b61028c60048036038101906102879190611706565b610740565b604051610299919061159c565b60405180910390f35b6102bc60048036038101906102b79190611706565b610777565b005b6102d860048036038101906102d39190611770565b6107a3565b005b6102f460048036038101906102ef91906117c3565b6107db565b6040516103019190611755565b60405180910390f35b610324600480360381019061031f91906117c3565b610823565b005b61032e6109b4565b60405161033b9190611848565b60405180910390f35b61034c6109da565b6040516103599190611650565b60405180910390f35b61037c60048036038101906103779190611706565b610a6c565b604051610389919061159c565b60405180910390f35b6103ac60048036038101906103a79190611706565b610ae3565b6040516103b9919061159c565b60405180910390f35b6103dc60048036038101906103d79190611998565b610b06565b005b6103f860048036038101906103f39190611a1b565b610b30565b6040516104059190611755565b60405180910390f35b61042860048036038101906104239190611a5b565b610bb7565b005b610444600480360381019061043f91906117c3565b610bd5565b6040516104519190611755565b60405180910390f35b60007f65787371000000000000000000000000000000000000000000000000000000007bffffffffffffffffffffffffffffffffffffffffffffffffffffffff1916827bffffffffffffffffffffffffffffffffffffffffffffffffffffffff1916148061052557507fa219a025000000000000000000000000000000000000000000000000000000007bffffffffffffffffffffffffffffffffffffffffffffffffffffffff1916827bffffffffffffffffffffffffffffffffffffffffffffffffffffffff1916145b80610535575061053482610c1e565b5b9050919050565b60606003805461054b90611af9565b80601f016020809104026020016040519081016040528092919081815260200182805461057790611af9565b80156105c45780601f10610599576101008083540402835291602001916105c4565b820191906000526020600020905b8154815290600101906020018083116105a757829003601f168201915b5050505050905090565b6000806105d9610c88565b90506105e6818585610c90565b600191505092915050565b6000600254905090565b600080610606610c88565b9050610613858285610e5b565b61061e858585610ee7565b60019150509392505050565b600660009054906101000a900473ffffffffffffffffffffffffffffffffffffffff1673ffffffffffffffffffffffffffffffffffffffff163373ffffffffffffffffffffffffffffffffffffffff16146106ba576040517f08c379a00000000000000000000000000000000000000000000000000000000081526004016106b190611b77565b60405180910390fd5b6106c5816032611168565b6032600560008373ffffffffffffffffffffffffffffffffffffffff1673ffffffffffffffffffffffffffffffffffffffff16815260200190815260200160002060008282546107159190611bc6565b9250508190555050565b60056020528060005260406000206000915090505481565b60006012905090565b60008061074b610c88565b905061076c81858561075d8589610b30565b6107679190611bc6565b610c90565b600191505092915050565b6000610781610c88565b905061079e818484604051806020016040528060008152506112c8565b505050565b60006107ad610c88565b90506107ba848284610e5b565b6107d5848484604051806020016040528060008152506112c8565b50505050565b60008060008373ffffffffffffffffffffffffffffffffffffffff1673ffffffffffffffffffffffffffffffffffffffff168152602001908152602001600020549050919050565b600660009054906101000a900473ffffffffffffffffffffffffffffffffffffffff1673ffffffffffffffffffffffffffffffffffffffff163373ffffffffffffffffffffffffffffffffffffffff16146108b3576040517f08c379a00000000000000000000000000000000000000000000000000000000081526004016108aa90611b77565b60405180910390fd5b6108e1600660009054906101000a900473ffffffffffffffffffffffffffffffffffffffff16826032610ee7565b603260056000600660009054906101000a900473ffffffffffffffffffffffffffffffffffffffff1673ffffffffffffffffffffffffffffffffffffffff1673ffffffffffffffffffffffffffffffffffffffff16815260200190815260200160002060008282546109539190611c1c565b925050819055506032600560008373ffffffffffffffffffffffffffffffffffffffff1673ffffffffffffffffffffffffffffffffffffffff16815260200190815260200160002060008282546109aa9190611bc6565b9250508190555050565b600660009054906101000a900473ffffffffffffffffffffffffffffffffffffffff1681565b6060600480546109e990611af9565b80601f0160208091040260200160405190810160405280929190818152602001828054610a1590611af9565b8015610a625780601f10610a3757610100808354040283529160200191610a62565b820191906000526020600020905b815481529060010190602001808311610a4557829003601f168201915b5050505050905090565b600080610a77610c88565b90506000610a858286610b30565b905083811015610aca576040517f08c379a0000000000000000000000000000000000000000000000000000000008152600401610ac190611cc2565b60405180910390fd5b610ad78286868403610c90565b60019250505092915050565b600080610aee610c88565b9050610afb818585610ee7565b600191505092915050565b6000610b10610c88565b9050610b1d858285610e5b565b610b29858585856112c8565b5050505050565b6000600160008473ffffffffffffffffffffffffffffffffffffffff1673ffffffffffffffffffffffffffffffffffffffff16815260200190815260200160002060008373ffffffffffffffffffffffffffffffffffffffff1673ffffffffffffffffffffffffffffffffffffffff16815260200190815260200160002054905092915050565b6000610bc1610c88565b9050610bcf818585856112c8565b50505050565b6000600560008373ffffffffffffffffffffffffffffffffffffffff1673ffffffffffffffffffffffffffffffffffffffff168152602001908152602001600020549050919050565b60007f01ffc9a7000000000000000000000000000000000000000000000000000000007bffffffffffffffffffffffffffffffffffffffffffffffffffffffff1916827bffffffffffffffffffffffffffffffffffffffffffffffffffffffff1916149050919050565b600033905090565b600073ffffffffffffffffffffffffffffffffffffffff168373ffffffffffffffffffffffffffffffffffffffff161415610d00576040517f08c379a0000000000000000000000000000000000000000000000000000000008152600401610cf790611d54565b60405180910390fd5b600073ffffffffffffffffffffffffffffffffffffffff168273ffffffffffffffffffffffffffffffffffffffff161415610d70576040517f08c379a0000000000000000000000000000000000000000000000000000000008152600401610d6790611de6565b60405180910390fd5b80600160008573ffffffffffffffffffffffffffffffffffffffff1673ffffffffffffffffffffffffffffffffffffffff16815260200190815260200160002060008473ffffffffffffffffffffffffffffffffffffffff1673ffffffffffffffffffffffffffffffffffffffff168152602001908152602001600020819055508173ffffffffffffffffffffffffffffffffffffffff168373ffffffffffffffffffffffffffffffffffffffff167f8c5be1e5ebec7d5bd14f71427d1e84f3dd0314c0f7b2291e5b200ac8c7c3b92583604051610e4e9190611755565b60405180910390a3505050565b6000610e678484610b30565b90507fffffffffffffffffffffffffffffffffffffffffffffffffffffffffffffffff8114610ee15781811015610ed3576040517f08c379a0000000000000000000000000000000000000000000000000000000008152600401610eca90611e52565b60405180910390fd5b610ee08484848403610c90565b5b50505050565b600073ffffffffffffffffffffffffffffffffffffffff168373ffffffffffffffffffffffffffffffffffffffff161415610f57576040517f08c379a0000000000000000000000000000000000000000000000000000000008152600401610f4e90611ee4565b60405180910390fd5b600073ffffffffffffffffffffffffffffffffffffffff168273ffffffffffffffffffffffffffffffffffffffff161415610fc7576040517f08c379a0000000000000000000000000000000000000000000000000000000008152600401610fbe90611f76565b60405180910390fd5b610fd2838383611324565b60008060008573ffffffffffffffffffffffffffffffffffffffff1673ffffffffffffffffffffffffffffffffffffffff16815260200190815260200160002054905081811015611058576040517f08c379a000000000000000000000000000000000000000000000000000000000815260040161104f90612008565b60405180910390fd5b8181036000808673ffffffffffffffffffffffffffffffffffffffff1673ffffffffffffffffffffffffffffffffffffffff16815260200190815260200160002081905550816000808573ffffffffffffffffffffffffffffffffffffffff1673ffffffffffffffffffffffffffffffffffffffff16815260200190815260200160002060008282546110eb9190611bc6565b925050819055508273ffffffffffffffffffffffffffffffffffffffff168473ffffffffffffffffffffffffffffffffffffffff167fddf252ad1be2c89b69c2b068fc378daa952ba7f163c4a11628f55a4df523b3ef8460405161114f9190611755565b60405180910390a3611162848484611329565b50505050565b600073ffffffffffffffffffffffffffffffffffffffff168273ffffffffffffffffffffffffffffffffffffffff1614156111d8576040517f08c379a00000000000000000000000000000000000000000000000000000000081526004016111cf90612074565b60405180910390fd5b6111e460008383611324565b80600260008282546111f69190611bc6565b92505081905550806000808473ffffffffffffffffffffffffffffffffffffffff1673ffffffffffffffffffffffffffffffffffffffff168152602001908152602001600020600082825461124b9190611bc6565b925050819055508173ffffffffffffffffffffffffffffffffffffffff16600073ffffffffffffffffffffffffffffffffffffffff167fddf252ad1be2c89b69c2b068fc378daa952ba7f163c4a11628f55a4df523b3ef836040516112b09190611755565b60405180910390a36112c460008383611329565b5050565b6112d3848484610ee7565b6112df8484848461132e565b61131e576040517f08c379a000000000000000000000000000000000000000000000000000000000815260040161131590612106565b60405180910390fd5b50505050565b505050565b505050565b600061134f8473ffffffffffffffffffffffffffffffffffffffff166114c5565b156114b8578373ffffffffffffffffffffffffffffffffffffffff16639d188c22611378610c88565b8786866040518563ffffffff1660e01b815260040161139a949392919061218a565b602060405180830381600087803b1580156113b457600080fd5b505af19250505080156113e557506040513d601f19601f820116820180604052508101906113e291906121eb565b60015b611468573d8060008114611415576040519150601f19603f3d011682016040523d82523d6000602084013e61141a565b606091505b50600081511415611460576040517f08c379a00000000000000000000000000000000000000000000000000000000081526004016114579061228a565b60405180910390fd5b805181602001fd5b639d188c2260e01b7bffffffffffffffffffffffffffffffffffffffffffffffffffffffff1916817bffffffffffffffffffffffffffffffffffffffffffffffffffffffff1916149150506114bd565b600190505b949350505050565b6000808273ffffffffffffffffffffffffffffffffffffffff163b119050919050565b6000604051905090565b600080fd5b600080fd5b60007fffffffff0000000000000000000000000000000000000000000000000000000082169050919050565b611531816114fc565b811461153c57600080fd5b50565b60008135905061154e81611528565b92915050565b60006020828403121561156a576115696114f2565b5b60006115788482850161153f565b91505092915050565b60008115159050919050565b61159681611581565b82525050565b60006020820190506115b1600083018461158d565b92915050565b600081519050919050565b600082825260208201905092915050565b60005b838110156115f15780820151818401526020810190506115d6565b83811115611600576000848401525b50505050565b6000601f19601f8301169050919050565b6000611622826115b7565b61162c81856115c2565b935061163c8185602086016115d3565b61164581611606565b840191505092915050565b6000602082019050818103600083015261166a8184611617565b905092915050565b600073ffffffffffffffffffffffffffffffffffffffff82169050919050565b600061169d82611672565b9050919050565b6116ad81611692565b81146116b857600080fd5b50565b6000813590506116ca816116a4565b92915050565b6000819050919050565b6116e3816116d0565b81146116ee57600080fd5b50565b600081359050611700816116da565b92915050565b6000806040838503121561171d5761171c6114f2565b5b600061172b858286016116bb565b925050602061173c858286016116f1565b9150509250929050565b61174f816116d0565b82525050565b600060208201905061176a6000830184611746565b92915050565b600080600060608486031215611789576117886114f2565b5b6000611797868287016116bb565b93505060206117a8868287016116bb565b92505060406117b9868287016116f1565b9150509250925092565b6000602082840312156117d9576117d86114f2565b5b60006117e7848285016116bb565b91505092915050565b600060ff82169050919050565b611806816117f0565b82525050565b600060208201905061182160008301846117fd565b92915050565b600061183282611672565b9050919050565b61184281611827565b82525050565b600060208201905061185d6000830184611839565b92915050565b600080fd5b600080fd5b7f4e487b7100000000000000000000000000000000000000000000000000000000600052604160045260246000fd5b6118a582611606565b810181811067ffffffffffffffff821117156118c4576118c361186d565b5b80604052505050565b60006118d76114e8565b90506118e3828261189c565b919050565b600067ffffffffffffffff8211156119035761190261186d565b5b61190c82611606565b9050602081019050919050565b82818337600083830152505050565b600061193b611936846118e8565b6118cd565b90508281526020810184848401111561195757611956611868565b5b611962848285611919565b509392505050565b600082601f83011261197f5761197e611863565b5b813561198f848260208601611928565b91505092915050565b600080600080608085870312156119b2576119b16114f2565b5b60006119c0878288016116bb565b94505060206119d1878288016116bb565b93505060406119e2878288016116f1565b925050606085013567ffffffffffffffff811115611a0357611a026114f7565b5b611a0f8782880161196a565b91505092959194509250565b60008060408385031215611a3257611a316114f2565b5b6000611a40858286016116bb565b9250506020611a51858286016116bb565b9150509250929050565b600080600060608486031215611a7457611a736114f2565b5b6000611a82868287016116bb565b9350506020611a93868287016116f1565b925050604084013567ffffffffffffffff811115611ab457611ab36114f7565b5b611ac08682870161196a565b9150509250925092565b7f4e487b7100000000000000000000000000000000000000000000000000000000600052602260045260246000fd5b60006002820490506001821680611b1157607f821691505b60208210811415611b2557611b24611aca565b5b50919050565b7f4e6f74204465706c6f7965722100000000000000000000000000000000000000600082015250565b6000611b61600d836115c2565b9150611b6c82611b2b565b602082019050919050565b60006020820190508181036000830152611b9081611b54565b9050919050565b7f4e487b7100000000000000000000000000000000000000000000000000000000600052601160045260246000fd5b6000611bd1826116d0565b9150611bdc836116d0565b9250827fffffffffffffffffffffffffffffffffffffffffffffffffffffffffffffffff03821115611c1157611c10611b97565b5b828201905092915050565b6000611c27826116d0565b9150611c32836116d0565b925082821015611c4557611c44611b97565b5b828203905092915050565b7f4b4950373a2064656372656173656420616c6c6f77616e63652062656c6f772060008201527f7a65726f00000000000000000000000000000000000000000000000000000000602082015250565b6000611cac6024836115c2565b9150611cb782611c50565b604082019050919050565b60006020820190508181036000830152611cdb81611c9f565b9050919050565b7f4b4950373a20617070726f76652066726f6d20746865207a65726f206164647260008201527f6573730000000000000000000000000000000000000000000000000000000000602082015250565b6000611d3e6023836115c2565b9150611d4982611ce2565b604082019050919050565b60006020820190508181036000830152611d6d81611d31565b9050919050565b7f4b4950373a20617070726f766520746f20746865207a65726f2061646472657360008201527f7300000000000000000000000000000000000000000000000000000000000000602082015250565b6000611dd06021836115c2565b9150611ddb82611d74565b604082019050919050565b60006020820190508181036000830152611dff81611dc3565b9050919050565b7f4b4950373a20696e73756666696369656e7420616c6c6f77616e636500000000600082015250565b6000611e3c601c836115c2565b9150611e4782611e06565b602082019050919050565b60006020820190508181036000830152611e6b81611e2f565b9050919050565b7f4b4950373a207472616e736665722066726f6d20746865207a65726f2061646460008201527f7265737300000000000000000000000000000000000000000000000000000000602082015250565b6000611ece6024836115c2565b9150611ed982611e72565b604082019050919050565b60006020820190508181036000830152611efd81611ec1565b9050919050565b7f4b4950373a207472616e7366657220746f20746865207a65726f20616464726560008201527f7373000000000000000000000000000000000000000000000000000000000000602082015250565b6000611f606022836115c2565b9150611f6b82611f04565b604082019050919050565b60006020820190508181036000830152611f8f81611f53565b9050919050565b7f4b4950373a207472616e7366657220616d6f756e74206578636565647320626160008201527f6c616e6365000000000000000000000000000000000000000000000000000000602082015250565b6000611ff26025836115c2565b9150611ffd82611f96565b604082019050919050565b6000602082019050818103600083015261202181611fe5565b9050919050565b7f4b4950373a206d696e7420746f20746865207a65726f20616464726573730000600082015250565b600061205e601e836115c2565b915061206982612028565b602082019050919050565b6000602082019050818103600083015261208d81612051565b9050919050565b7f4b4950373a207472616e7366657220746f206e6f6e20494b495037526563656960008201527f76657220696d706c656d656e7465720000000000000000000000000000000000602082015250565b60006120f0602f836115c2565b91506120fb82612094565b604082019050919050565b6000602082019050818103600083015261211f816120e3565b9050919050565b61212f81611692565b82525050565b600081519050919050565b600082825260208201905092915050565b600061215c82612135565b6121668185612140565b93506121768185602086016115d3565b61217f81611606565b840191505092915050565b600060808201905061219f6000830187612126565b6121ac6020830186612126565b6121b96040830185611746565b81810360608301526121cb8184612151565b905095945050505050565b6000815190506121e581611528565b92915050565b600060208284031215612201576122006114f2565b5b600061220f848285016121d6565b91505092915050565b7f4b4950373a207472616e7366657220746f206e6f6e204b49503752656365697660008201527f657220696d706c656d656e746572000000000000000000000000000000000000602082015250565b6000612274602e836115c2565b915061227f82612218565b604082019050919050565b600060208201905081810360008301526122a381612267565b905091905056fea264697066735822122098716d9a1ba631e6b1fe083f9d32700c577e0da0128e09993c7c570005b5ca9164736f6c63430008090033",
  "linkReferences": {},
  "deployedLinkReferences": {}
}